{
  "_format": "hh-sol-artifact-1",
  "contractName": "Elect",
  "sourceName": "contracts/tester.sol",
  "abi": [
    {
      "inputs": [],
      "stateMutability": "nonpayable",
      "type": "constructor"
    },
    {
      "anonymous": false,
      "inputs": [
        {
          "indexed": true,
          "internalType": "address",
          "name": "previousOwner",
          "type": "address"
        },
        {
          "indexed": true,
          "internalType": "address",
          "name": "newOwner",
          "type": "address"
        }
      ],
      "name": "OwnershipTransferred",
      "type": "event"
    },
    {
      "anonymous": false,
      "inputs": [
        {
          "indexed": false,
          "internalType": "uint256",
          "name": "ID",
          "type": "uint256"
        },
        {
          "indexed": false,
          "internalType": "string",
          "name": "name",
          "type": "string"
        },
        {
          "indexed": false,
          "internalType": "string",
          "name": "position",
          "type": "string"
        },
        {
          "indexed": false,
          "internalType": "string",
          "name": "ipfs",
          "type": "string"
        }
      ],
      "name": "candidates",
      "type": "event"
    },
    {
      "inputs": [
        {
          "internalType": "string",
          "name": "_name",
          "type": "string"
        },
        {
          "internalType": "string",
          "name": "_position",
          "type": "string"
        },
        {
          "internalType": "string",
          "name": "_link",
          "type": "string"
        }
      ],
      "name": "addCandidate",
      "outputs": [],
      "stateMutability": "nonpayable",
      "type": "function"
    },
    {
      "inputs": [
        {
          "internalType": "address[]",
          "name": "addresses",
          "type": "address[]"
        },
        {
          "internalType": "string[]",
          "name": "accountTypes",
          "type": "string[]"
        }
      ],
      "name": "addStakeholders",
      "outputs": [],
      "stateMutability": "nonpayable",
      "type": "function"
    },
    {
      "inputs": [],
      "name": "beginVote",
      "outputs": [],
      "stateMutability": "nonpayable",
      "type": "function"
    },
    {
      "inputs": [
        {
          "internalType": "uint256",
          "name": "",
          "type": "uint256"
        }
      ],
      "name": "candidateList",
      "outputs": [
        {
          "internalType": "uint256",
          "name": "ID",
          "type": "uint256"
        },
        {
          "internalType": "string",
          "name": "name",
          "type": "string"
        },
        {
          "internalType": "string",
          "name": "position",
          "type": "string"
        },
        {
          "internalType": "string",
          "name": "ipfs",
          "type": "string"
        }
      ],
      "stateMutability": "view",
      "type": "function"
    },
    {
      "inputs": [],
      "name": "candidateVotes",
      "outputs": [
        {
          "components": [
            {
              "internalType": "uint256",
              "name": "ID",
              "type": "uint256"
            },
            {
              "internalType": "uint256",
              "name": "votesCount",
              "type": "uint256"
            }
          ],
          "internalType": "struct Elect.VoteData[]",
          "name": "",
          "type": "tuple[]"
        }
      ],
      "stateMutability": "view",
      "type": "function"
    },
    {
      "inputs": [],
      "name": "disable",
      "outputs": [],
      "stateMutability": "nonpayable",
      "type": "function"
    },
    {
      "inputs": [],
      "name": "enable",
      "outputs": [],
      "stateMutability": "nonpayable",
      "type": "function"
    },
    {
      "inputs": [],
      "name": "endVote",
      "outputs": [],
      "stateMutability": "nonpayable",
      "type": "function"
    },
    {
      "inputs": [
        {
          "internalType": "address",
          "name": "user",
          "type": "address"
        }
      ],
      "name": "getAccountType",
      "outputs": [
        {
          "internalType": "string",
          "name": "",
          "type": "string"
        }
      ],
      "stateMutability": "view",
      "type": "function"
    },
    {
      "inputs": [],
      "name": "getCandidates",
      "outputs": [
        {
          "components": [
            {
              "internalType": "uint256",
              "name": "ID",
              "type": "uint256"
            },
            {
              "internalType": "string",
              "name": "name",
              "type": "string"
            },
            {
              "internalType": "string",
              "name": "position",
              "type": "string"
            },
            {
              "internalType": "string",
              "name": "ipfs",
              "type": "string"
            }
          ],
          "internalType": "struct Elect.candid[]",
          "name": "",
          "type": "tuple[]"
        }
      ],
      "stateMutability": "view",
      "type": "function"
    },
    {
      "inputs": [],
      "name": "getElectionPhase",
      "outputs": [
        {
          "internalType": "uint8",
          "name": "",
          "type": "uint8"
        }
      ],
      "stateMutability": "view",
      "type": "function"
    },
    {
      "inputs": [],
      "name": "isAvailable",
      "outputs": [
        {
          "internalType": "bool",
          "name": "",
          "type": "bool"
        }
      ],
      "stateMutability": "view",
      "type": "function"
    },
    {
      "inputs": [],
      "name": "owner",
      "outputs": [
        {
          "internalType": "address",
          "name": "",
          "type": "address"
        }
      ],
      "stateMutability": "view",
      "type": "function"
    },
    {
      "inputs": [],
      "name": "publishResults",
      "outputs": [],
      "stateMutability": "nonpayable",
      "type": "function"
    },
    {
      "inputs": [],
      "name": "renounceOwnership",
      "outputs": [],
      "stateMutability": "nonpayable",
      "type": "function"
    },
    {
      "inputs": [
        {
          "internalType": "address",
          "name": "_chairman",
          "type": "address"
        }
      ],
      "name": "setChairman",
      "outputs": [],
      "stateMutability": "nonpayable",
      "type": "function"
    },
    {
      "inputs": [
        {
          "internalType": "address",
          "name": "newOwner",
          "type": "address"
        }
      ],
      "name": "transferOwnership",
      "outputs": [],
      "stateMutability": "nonpayable",
      "type": "function"
    },
    {
      "inputs": [
        {
          "internalType": "uint256[]",
          "name": "candidateIDs",
          "type": "uint256[]"
        }
      ],
      "name": "voteCandidates",
      "outputs": [],
      "stateMutability": "nonpayable",
      "type": "function"
    }
  ],
  "bytecode": "0x60806040526000600360006101000a81548160ff021916908360ff1602179055503480156200002d57600080fd5b506200004e620000426200009c60201b60201c565b620000a460201b60201c565b33600960006101000a81548173ffffffffffffffffffffffffffffffffffffffff021916908373ffffffffffffffffffffffffffffffffffffffff1602179055504260088190555062000168565b600033905090565b60008060009054906101000a900473ffffffffffffffffffffffffffffffffffffffff169050816000806101000a81548173ffffffffffffffffffffffffffffffffffffffff021916908373ffffffffffffffffffffffffffffffffffffffff1602179055508173ffffffffffffffffffffffffffffffffffffffff168173ffffffffffffffffffffffffffffffffffffffff167f8be0079c531659141344cd1fd0a4f28419497f9722a3daafe3b4186f6b6457e060405160405180910390a35050565b61338f80620001786000396000f3fe608060405234801561001057600080fd5b50600436106101165760003560e01c8063a6a5ad12116100a2578063b13c744b11610071578063b13c744b1461025d578063b922394614610290578063b952e7d81461029a578063ed5d673f146102a4578063f2fde38b146102c057610116565b8063a6a5ad12146101d9578063a7b49529146101f5578063ad71f8dc14610211578063ae2031461461022d57610116565b8063715018a6116100e9578063715018a61461016b57806383d7558a14610175578063856c71dd146101935780638da5cb5b146101b1578063a3907d71146101cf57610116565b806306a49fce1461011b57806328bc5ee4146101395780632cd4c5bb146101435780632f2770db14610161575b600080fd5b6101236102dc565b604051610130919061292d565b60405180910390f35b6101416104fb565b005b61014b610648565b6040516101589190612ba6565b60405180910390f35b61016961065f565b005b610173610707565b005b61017d61078f565b60405161018a919061290b565b60405180910390f35b61019b610932565b6040516101a8919061294f565b60405180910390f35b6101b961093f565b6040516101c691906128f0565b60405180910390f35b6101d7610968565b005b6101f360048036038101906101ee91906122b9565b610a01565b005b61020f600480360381019061020a9190612224565b610e56565b005b61022b600480360381019061022691906122fa565b610f16565b005b61024760048036038101906102429190612224565b611149565b604051610254919061296a565b60405180910390f35b61027760048036038101906102729190612391565b6113c9565b6040516102879493929190612b4c565b60405180910390f35b6102986115a1565b005b6102a26116ed565b005b6102be60048036038101906102b9919061224d565b61194d565b005b6102da60048036038101906102d59190612224565b611d06565b005b60606001805480602002602001604051908101604052809291908181526020016000905b828210156104f257838290600052602060002090600402016040518060800160405290816000820154815260200160018201805461033d90612e66565b80601f016020809104026020016040519081016040528092919081815260200182805461036990612e66565b80156103b65780601f1061038b576101008083540402835291602001916103b6565b820191906000526020600020905b81548152906001019060200180831161039957829003601f168201915b505050505081526020016002820180546103cf90612e66565b80601f01602080910402602001604051908101604052809291908181526020018280546103fb90612e66565b80156104485780601f1061041d57610100808354040283529160200191610448565b820191906000526020600020905b81548152906001019060200180831161042b57829003601f168201915b5050505050815260200160038201805461046190612e66565b80601f016020809104026020016040519081016040528092919081815260200182805461048d90612e66565b80156104da5780601f106104af576101008083540402835291602001916104da565b820191906000526020600020905b8154815290600101906020018083116104bd57829003601f168201915b50505050508152505081526020019060010190610300565b50505050905090565b600854421015610540576040517f08c379a000000000000000000000000000000000000000000000000000000000815260040161053790612a2c565b60405180910390fd5b600960009054906101000a900473ffffffffffffffffffffffffffffffffffffffff1673ffffffffffffffffffffffffffffffffffffffff163373ffffffffffffffffffffffffffffffffffffffff16146105d0576040517f08c379a00000000000000000000000000000000000000000000000000000000081526004016105c790612b2c565b60405180910390fd5b600960149054906101000a900460ff1615610620576040517f08c379a000000000000000000000000000000000000000000000000000000000815260040161061790612b0c565b60405180910390fd5b6001600360006101000a81548160ff021916908360ff1602179055506106466001611dfe565b565b6000600360009054906101000a900460ff16905090565b600960009054906101000a900473ffffffffffffffffffffffffffffffffffffffff1673ffffffffffffffffffffffffffffffffffffffff163373ffffffffffffffffffffffffffffffffffffffff16146106ef576040517f08c379a00000000000000000000000000000000000000000000000000000000081526004016106e690612a8c565b60405180910390fd5b6301e28500426106ff9190612d45565b600881905550565b61070f611e1b565b73ffffffffffffffffffffffffffffffffffffffff1661072d61093f565b73ffffffffffffffffffffffffffffffffffffffff1614610783576040517f08c379a000000000000000000000000000000000000000000000000000000000815260040161077a90612a4c565b60405180910390fd5b61078d6000611e23565b565b60606008544210156107d6576040517f08c379a00000000000000000000000000000000000000000000000000000000081526004016107cd90612a2c565b60405180910390fd5b600960009054906101000a900473ffffffffffffffffffffffffffffffffffffffff1673ffffffffffffffffffffffffffffffffffffffff163373ffffffffffffffffffffffffffffffffffffffff161480610882575060011515600560003373ffffffffffffffffffffffffffffffffffffffff1673ffffffffffffffffffffffffffffffffffffffff16815260200190815260200160002060009054906101000a900460ff161515145b6108c1576040517f08c379a00000000000000000000000000000000000000000000000000000000081526004016108b8906129ec565b60405180910390fd5b6002805480602002602001604051908101604052809291908181526020016000905b82821015610929578382906000526020600020906002020160405180604001604052908160008201548152602001600182015481525050815260200190600101906108e3565b50505050905090565b6000600854421015905090565b60008060009054906101000a900473ffffffffffffffffffffffffffffffffffffffff16905090565b600960009054906101000a900473ffffffffffffffffffffffffffffffffffffffff1673ffffffffffffffffffffffffffffffffffffffff163373ffffffffffffffffffffffffffffffffffffffff16146109f8576040517f08c379a00000000000000000000000000000000000000000000000000000000081526004016109ef90612a8c565b60405180910390fd5b42600881905550565b600854421015610a46576040517f08c379a0000000000000000000000000000000000000000000000000000000008152600401610a3d90612a2c565b60405180910390fd5b60011515600560003373ffffffffffffffffffffffffffffffffffffffff1673ffffffffffffffffffffffffffffffffffffffff16815260200190815260200160002060009054906101000a900460ff1615151480610af25750600960009054906101000a900473ffffffffffffffffffffffffffffffffffffffff1673ffffffffffffffffffffffffffffffffffffffff163373ffffffffffffffffffffffffffffffffffffffff16145b80610b4d575060011515600660003373ffffffffffffffffffffffffffffffffffffffff1673ffffffffffffffffffffffffffffffffffffffff16815260200190815260200160002060009054906101000a900460ff161515145b80610ba8575060011515600760003373ffffffffffffffffffffffffffffffffffffffff1673ffffffffffffffffffffffffffffffffffffffff16815260200190815260200160002060009054906101000a900460ff161515145b610be7576040517f08c379a0000000000000000000000000000000000000000000000000000000008152600401610bde90612acc565b60405180910390fd5b60011515600960149054906101000a900460ff16151514610c3d576040517f08c379a0000000000000000000000000000000000000000000000000000000008152600401610c3490612aec565b60405180910390fd5b60001515600460003373ffffffffffffffffffffffffffffffffffffffff1673ffffffffffffffffffffffffffffffffffffffff16815260200190815260200160002060009054906101000a900460ff16151514610cd0576040517f08c379a0000000000000000000000000000000000000000000000000000000008152600401610cc790612a6c565b60405180910390fd5b60005b81518160ff161015610dfa57600180549050828260ff1681518110610d21577f4e487b7100000000000000000000000000000000000000000000000000000000600052603260045260246000fd5b60200260200101511115610d3457610de7565b600160026001848460ff1681518110610d76577f4e487b7100000000000000000000000000000000000000000000000000000000600052603260045260246000fd5b6020026020010151610d889190612d9b565b81548110610dbf577f4e487b7100000000000000000000000000000000000000000000000000000000600052603260045260246000fd5b90600052602060002090600202016001016000828254610ddf9190612d45565b925050819055505b8080610df290612f12565b915050610cd3565b506001600460003373ffffffffffffffffffffffffffffffffffffffff1673ffffffffffffffffffffffffffffffffffffffff16815260200190815260200160002060006101000a81548160ff02191690831515021790555050565b610e5e611e1b565b73ffffffffffffffffffffffffffffffffffffffff16610e7c61093f565b73ffffffffffffffffffffffffffffffffffffffff1614610ed2576040517f08c379a0000000000000000000000000000000000000000000000000000000008152600401610ec990612a4c565b60405180910390fd5b80600960006101000a81548173ffffffffffffffffffffffffffffffffffffffff021916908373ffffffffffffffffffffffffffffffffffffffff16021790555050565b600854421015610f5b576040517f08c379a0000000000000000000000000000000000000000000000000000000008152600401610f5290612a2c565b60405180910390fd5b600960009054906101000a900473ffffffffffffffffffffffffffffffffffffffff1673ffffffffffffffffffffffffffffffffffffffff163373ffffffffffffffffffffffffffffffffffffffff1614610feb576040517f08c379a0000000000000000000000000000000000000000000000000000000008152600401610fe29061298c565b60405180910390fd5b600060018080549050610ffe9190612d45565b905060016040518060800160405280838152602001868152602001858152602001848152509080600181540180825580915050600190039060005260206000209060040201600090919091909150600082015181600001556020820151816001019080519060200190611072929190611f13565b50604082015181600201908051906020019061108f929190611f13565b5060608201518160030190805190602001906110ac929190611f13565b5050506002604051806040016040528083815260200160008152509080600181540180825580915050600190039060005260206000209060020201600090919091909150600082015181600001556020820151816001015550507ffa9a98070013aa5035e44fc5d4ae6bfedbce2081816a89df927bac89f11658988185858560405161113b9493929190612b4c565b60405180910390a150505050565b6060600960009054906101000a900473ffffffffffffffffffffffffffffffffffffffff1673ffffffffffffffffffffffffffffffffffffffff168273ffffffffffffffffffffffffffffffffffffffff1614156111de576040518060400160405280600881526020017f43686169726d616e00000000000000000000000000000000000000000000000081525090506113c4565b600560008373ffffffffffffffffffffffffffffffffffffffff1673ffffffffffffffffffffffffffffffffffffffff16815260200190815260200160002060009054906101000a900460ff161561126d576040518060400160405280600781526020017f546561636865720000000000000000000000000000000000000000000000000081525090506113c4565b600660008373ffffffffffffffffffffffffffffffffffffffff1673ffffffffffffffffffffffffffffffffffffffff16815260200190815260200160002060009054906101000a900460ff16156112fc576040518060400160405280600881526020017f4469726563746f7200000000000000000000000000000000000000000000000081525090506113c4565b600760008373ffffffffffffffffffffffffffffffffffffffff1673ffffffffffffffffffffffffffffffffffffffff16815260200190815260200160002060009054906101000a900460ff161561138b576040518060400160405280600781526020017f73747564656e740000000000000000000000000000000000000000000000000081525090506113c4565b6040518060400160405280600e81526020017f4e6f7420417574686f72697a656400000000000000000000000000000000000081525090505b919050565b600181815481106113d957600080fd5b906000526020600020906004020160009150905080600001549080600101805461140290612e66565b80601f016020809104026020016040519081016040528092919081815260200182805461142e90612e66565b801561147b5780601f106114505761010080835404028352916020019161147b565b820191906000526020600020905b81548152906001019060200180831161145e57829003601f168201915b50505050509080600201805461149090612e66565b80601f01602080910402602001604051908101604052809291908181526020018280546114bc90612e66565b80156115095780601f106114de57610100808354040283529160200191611509565b820191906000526020600020905b8154815290600101906020018083116114ec57829003601f168201915b50505050509080600301805461151e90612e66565b80601f016020809104026020016040519081016040528092919081815260200182805461154a90612e66565b80156115975780601f1061156c57610100808354040283529160200191611597565b820191906000526020600020905b81548152906001019060200180831161157a57829003601f168201915b5050505050905084565b6008544210156115e6576040517f08c379a00000000000000000000000000000000000000000000000000000000081526004016115dd90612a2c565b60405180910390fd5b600960009054906101000a900473ffffffffffffffffffffffffffffffffffffffff1673ffffffffffffffffffffffffffffffffffffffff163373ffffffffffffffffffffffffffffffffffffffff1614611676576040517f08c379a000000000000000000000000000000000000000000000000000000000815260040161166d906129cc565b60405180910390fd5b600960149054906101000a900460ff166116c5576040517f08c379a00000000000000000000000000000000000000000000000000000000081526004016116bc90612a0c565b60405180910390fd5b6002600360006101000a81548160ff021916908360ff1602179055506116eb6000611dfe565b565b600854421015611732576040517f08c379a000000000000000000000000000000000000000000000000000000000815260040161172990612a2c565b60405180910390fd5b60011515600560003373ffffffffffffffffffffffffffffffffffffffff1673ffffffffffffffffffffffffffffffffffffffff16815260200190815260200160002060009054906101000a900460ff16151514806117de5750600960009054906101000a900473ffffffffffffffffffffffffffffffffffffffff1673ffffffffffffffffffffffffffffffffffffffff163373ffffffffffffffffffffffffffffffffffffffff16145b80611839575060011515600660003373ffffffffffffffffffffffffffffffffffffffff1673ffffffffffffffffffffffffffffffffffffffff16815260200190815260200160002060009054906101000a900460ff161515145b80611894575060011515600760003373ffffffffffffffffffffffffffffffffffffffff1673ffffffffffffffffffffffffffffffffffffffff16815260200190815260200160002060009054906101000a900460ff161515145b6118d3576040517f08c379a00000000000000000000000000000000000000000000000000000000081526004016118ca90612acc565b60405180910390fd5b6002600360009054906101000a900460ff1660ff1614611928576040517f08c379a000000000000000000000000000000000000000000000000000000000815260040161191f90612aac565b60405180910390fd5b611930611ee7565b60038060006101000a81548160ff021916908360ff160217905550565b60005b8251811015611d0157604051602001611968906128db565b604051602081830303815290604052805190602001208282815181106119b7577f4e487b7100000000000000000000000000000000000000000000000000000000600052603260045260246000fd5b60200260200101516040516020016119cf919061289a565b604051602081830303815290604052805190602001201415611a8857600160076000858481518110611a2a577f4e487b7100000000000000000000000000000000000000000000000000000000600052603260045260246000fd5b602002602001015173ffffffffffffffffffffffffffffffffffffffff1673ffffffffffffffffffffffffffffffffffffffff16815260200190815260200160002060006101000a81548160ff021916908315150217905550611ced565b604051602001611a97906128b1565b60405160208183030381529060405280519060200120828281518110611ae6577f4e487b7100000000000000000000000000000000000000000000000000000000600052603260045260246000fd5b6020026020010151604051602001611afe919061289a565b604051602081830303815290604052805190602001201415611bb757600160056000858481518110611b59577f4e487b7100000000000000000000000000000000000000000000000000000000600052603260045260246000fd5b602002602001015173ffffffffffffffffffffffffffffffffffffffff1673ffffffffffffffffffffffffffffffffffffffff16815260200190815260200160002060006101000a81548160ff021916908315150217905550611cec565b604051602001611bc6906128c6565b60405160208183030381529060405280519060200120828281518110611c15577f4e487b7100000000000000000000000000000000000000000000000000000000600052603260045260246000fd5b6020026020010151604051602001611c2d919061289a565b604051602081830303815290604052805190602001201415611ce657600160066000858481518110611c88577f4e487b7100000000000000000000000000000000000000000000000000000000600052603260045260246000fd5b602002602001015173ffffffffffffffffffffffffffffffffffffffff1673ffffffffffffffffffffffffffffffffffffffff16815260200190815260200160002060006101000a81548160ff021916908315150217905550611ceb565b611cee565b5b5b5b8080611cf990612ec9565b915050611950565b505050565b611d0e611e1b565b73ffffffffffffffffffffffffffffffffffffffff16611d2c61093f565b73ffffffffffffffffffffffffffffffffffffffff1614611d82576040517f08c379a0000000000000000000000000000000000000000000000000000000008152600401611d7990612a4c565b60405180910390fd5b600073ffffffffffffffffffffffffffffffffffffffff168173ffffffffffffffffffffffffffffffffffffffff161415611df2576040517f08c379a0000000000000000000000000000000000000000000000000000000008152600401611de9906129ac565b60405180910390fd5b611dfb81611e23565b50565b80600960146101000a81548160ff02191690831515021790555050565b600033905090565b60008060009054906101000a900473ffffffffffffffffffffffffffffffffffffffff169050816000806101000a81548173ffffffffffffffffffffffffffffffffffffffff021916908373ffffffffffffffffffffffffffffffffffffffff1602179055508173ffffffffffffffffffffffffffffffffffffffff168173ffffffffffffffffffffffffffffffffffffffff167f8be0079c531659141344cd1fd0a4f28419497f9722a3daafe3b4186f6b6457e060405160405180910390a35050565b600360019054906101000a900460ff1615600360016101000a81548160ff021916908315150217905550565b828054611f1f90612e66565b90600052602060002090601f016020900481019282611f415760008555611f88565b82601f10611f5a57805160ff1916838001178555611f88565b82800160010185558215611f88579182015b82811115611f87578251825591602001919060010190611f6c565b5b509050611f959190611f99565b5090565b5b80821115611fb2576000816000905550600101611f9a565b5090565b6000611fc9611fc484612be6565b612bc1565b90508083825260208201905082856020860282011115611fe857600080fd5b60005b858110156120185781611ffe8882612152565b845260208401935060208301925050600181019050611feb565b5050509392505050565b600061203561203084612c12565b612bc1565b9050808382526020820190508285602086028201111561205457600080fd5b60005b8581101561209e57813567ffffffffffffffff81111561207657600080fd5b80860161208389826121e5565b85526020850194506020840193505050600181019050612057565b5050509392505050565b60006120bb6120b684612c3e565b612bc1565b905080838252602082019050828560208602820111156120da57600080fd5b60005b8581101561210a57816120f0888261220f565b8452602084019350602083019250506001810190506120dd565b5050509392505050565b600061212761212284612c6a565b612bc1565b90508281526020810184848401111561213f57600080fd5b61214a848285612e24565b509392505050565b6000813590506121618161332b565b92915050565b600082601f83011261217857600080fd5b8135612188848260208601611fb6565b91505092915050565b600082601f8301126121a257600080fd5b81356121b2848260208601612022565b91505092915050565b600082601f8301126121cc57600080fd5b81356121dc8482602086016120a8565b91505092915050565b600082601f8301126121f657600080fd5b8135612206848260208601612114565b91505092915050565b60008135905061221e81613342565b92915050565b60006020828403121561223657600080fd5b600061224484828501612152565b91505092915050565b6000806040838503121561226057600080fd5b600083013567ffffffffffffffff81111561227a57600080fd5b61228685828601612167565b925050602083013567ffffffffffffffff8111156122a357600080fd5b6122af85828601612191565b9150509250929050565b6000602082840312156122cb57600080fd5b600082013567ffffffffffffffff8111156122e557600080fd5b6122f1848285016121bb565b91505092915050565b60008060006060848603121561230f57600080fd5b600084013567ffffffffffffffff81111561232957600080fd5b612335868287016121e5565b935050602084013567ffffffffffffffff81111561235257600080fd5b61235e868287016121e5565b925050604084013567ffffffffffffffff81111561237b57600080fd5b612387868287016121e5565b9150509250925092565b6000602082840312156123a357600080fd5b60006123b18482850161220f565b91505092915050565b60006123c683836127cd565b60408301905092915050565b60006123de83836127fc565b905092915050565b6123ef81612dcf565b82525050565b600061240082612cbb565b61240a8185612cf6565b935061241583612c9b565b8060005b8381101561244657815161242d88826123ba565b975061243883612cdc565b925050600181019050612419565b5085935050505092915050565b600061245e82612cc6565b6124688185612d07565b93508360208202850161247a85612cab565b8060005b858110156124b6578484038952815161249785826123d2565b94506124a283612ce9565b925060208a0199505060018101905061247e565b50829750879550505050505092915050565b6124d181612de1565b82525050565b60006124e282612cd1565b6124ec8185612d18565b93506124fc818560208601612e33565b61250581612fc9565b840191505092915050565b600061251b82612cd1565b6125258185612d29565b9350612535818560208601612e33565b61253e81612fc9565b840191505092915050565b600061255482612cd1565b61255e8185612d3a565b935061256e818560208601612e33565b80840191505092915050565b6000612587600783612d3a565b915061259282612fda565b600782019050919050565b60006125aa601083612d29565b91506125b582613003565b602082019050919050565b60006125cd602683612d29565b91506125d88261302c565b604082019050919050565b60006125f0600883612d3a565b91506125fb8261307b565b600882019050919050565b6000612613601883612d29565b915061261e826130a4565b602082019050919050565b6000612636602583612d29565b9150612641826130cd565b604082019050919050565b6000612659600783612d3a565b91506126648261311c565b600782019050919050565b600061267c602083612d29565b915061268782613145565b602082019050919050565b600061269f601483612d29565b91506126aa8261316e565b602082019050919050565b60006126c2602083612d29565b91506126cd82613197565b602082019050919050565b60006126e5601383612d29565b91506126f0826131c0565b602082019050919050565b6000612708601883612d29565b9150612713826131e9565b602082019050919050565b600061272b605883612d29565b915061273682613212565b606082019050919050565b600061274e601983612d29565b915061275982613287565b602082019050919050565b6000612771601883612d29565b915061277c826132b0565b602082019050919050565b6000612794601a83612d29565b915061279f826132d9565b602082019050919050565b60006127b7601783612d29565b91506127c282613302565b602082019050919050565b6040820160008201516127e3600085018261286d565b5060208201516127f6602085018261286d565b50505050565b6000608083016000830151612814600086018261286d565b506020830151848203602086015261282c82826124d7565b9150506040830151848203604086015261284682826124d7565b9150506060830151848203606086015261286082826124d7565b9150508091505092915050565b61287681612e0d565b82525050565b61288581612e0d565b82525050565b61289481612e17565b82525050565b60006128a68284612549565b915081905092915050565b60006128bc8261257a565b9150819050919050565b60006128d1826125e3565b9150819050919050565b60006128e68261264c565b9150819050919050565b600060208201905061290560008301846123e6565b92915050565b6000602082019050818103600083015261292581846123f5565b905092915050565b600060208201905081810360008301526129478184612453565b905092915050565b600060208201905061296460008301846124c8565b92915050565b600060208201905081810360008301526129848184612510565b905092915050565b600060208201905081810360008301526129a58161259d565b9050919050565b600060208201905081810360008301526129c5816125c0565b9050919050565b600060208201905081810360008301526129e581612606565b9050919050565b60006020820190508181036000830152612a0581612629565b9050919050565b60006020820190508181036000830152612a258161266f565b9050919050565b60006020820190508181036000830152612a4581612692565b9050919050565b60006020820190508181036000830152612a65816126b5565b9050919050565b60006020820190508181036000830152612a85816126d8565b9050919050565b60006020820190508181036000830152612aa5816126fb565b9050919050565b60006020820190508181036000830152612ac58161271e565b9050919050565b60006020820190508181036000830152612ae581612741565b9050919050565b60006020820190508181036000830152612b0581612764565b9050919050565b60006020820190508181036000830152612b2581612787565b9050919050565b60006020820190508181036000830152612b45816127aa565b9050919050565b6000608082019050612b61600083018761287c565b8181036020830152612b738186612510565b90508181036040830152612b878185612510565b90508181036060830152612b9b8184612510565b905095945050505050565b6000602082019050612bbb600083018461288b565b92915050565b6000612bcb612bdc565b9050612bd78282612e98565b919050565b6000604051905090565b600067ffffffffffffffff821115612c0157612c00612f9a565b5b602082029050602081019050919050565b600067ffffffffffffffff821115612c2d57612c2c612f9a565b5b602082029050602081019050919050565b600067ffffffffffffffff821115612c5957612c58612f9a565b5b602082029050602081019050919050565b600067ffffffffffffffff821115612c8557612c84612f9a565b5b612c8e82612fc9565b9050602081019050919050565b6000819050602082019050919050565b6000819050602082019050919050565b600081519050919050565b600081519050919050565b600081519050919050565b6000602082019050919050565b6000602082019050919050565b600082825260208201905092915050565b600082825260208201905092915050565b600082825260208201905092915050565b600082825260208201905092915050565b600081905092915050565b6000612d5082612e0d565b9150612d5b83612e0d565b9250827fffffffffffffffffffffffffffffffffffffffffffffffffffffffffffffffff03821115612d9057612d8f612f3c565b5b828201905092915050565b6000612da682612e0d565b9150612db183612e0d565b925082821015612dc457612dc3612f3c565b5b828203905092915050565b6000612dda82612ded565b9050919050565b60008115159050919050565b600073ffffffffffffffffffffffffffffffffffffffff82169050919050565b6000819050919050565b600060ff82169050919050565b82818337600083830152505050565b60005b83811015612e51578082015181840152602081019050612e36565b83811115612e60576000848401525b50505050565b60006002820490506001821680612e7e57607f821691505b60208210811415612e9257612e91612f6b565b5b50919050565b612ea182612fc9565b810181811067ffffffffffffffff82111715612ec057612ebf612f9a565b5b80604052505050565b6000612ed482612e0d565b91507fffffffffffffffffffffffffffffffffffffffffffffffffffffffffffffffff821415612f0757612f06612f3c565b5b600182019050919050565b6000612f1d82612e17565b915060ff821415612f3157612f30612f3c565b5b600182019050919050565b7f4e487b7100000000000000000000000000000000000000000000000000000000600052601160045260246000fd5b7f4e487b7100000000000000000000000000000000000000000000000000000000600052602260045260246000fd5b7f4e487b7100000000000000000000000000000000000000000000000000000000600052604160045260246000fd5b6000601f19601f8301169050919050565b7f5465616368657200000000000000000000000000000000000000000000000000600082015250565b7f6d7573742062652063686169726d616e00000000000000000000000000000000600082015250565b7f4f776e61626c653a206e6577206f776e657220697320746865207a65726f206160008201527f6464726573730000000000000000000000000000000000000000000000000000602082015250565b7f4469726563746f72000000000000000000000000000000000000000000000000600082015250565b7f796f75277265206e6f74207468652063686169726d616e200000000000000000600082015250565b7f596f7520646f6e7420686176652061636365737320746f20746869732066756e60008201527f6374696f6e000000000000000000000000000000000000000000000000000000602082015250565b7f73747564656e7400000000000000000000000000000000000000000000000000600082015250565b7f566f74696e672069732063757272656e746c79206e6f742072756e6e696e672e600082015250565b7f636f6e74726163742069732064697361626c6564000000000000000000000000600082015250565b7f4f776e61626c653a2063616c6c6572206973206e6f7420746865206f776e6572600082015250565b7f596f752063616e7420766f746520747769636500000000000000000000000000600082015250565b7f596f7520617265206e6f74207468652063686169726d616e0000000000000000600082015250565b7f596f752063616e74207075626c69736820726573756c7473207965742069662060008201527f766f74696e6720686173206e6f7420636f6d6d656e636564206f72206973206f60208201527f6e676f696e672e20456e6420566f74696e672066697273740000000000000000604082015250565b7f596f7520617265206e6f742061207374616b65686f6c64657200000000000000600082015250565b7f497473206e6f74207965742074696d6520746f20766f74650000000000000000600082015250565b7f566f74696e672069732072756e6e696e6720616c72656164792e000000000000600082015250565b7f796f75277265206e6f74207468652063686169726d616e000000000000000000600082015250565b61333481612dcf565b811461333f57600080fd5b50565b61334b81612e0d565b811461335657600080fd5b5056fea2646970667358221220781c725f910dc13ae470f2be7cc2c6f28aaf0e3f92b8c3e79f04c6c132c9c9cf64736f6c63430008040033",
  "linkReferences": {},
  "deployedLinkReferences": {}
}