{
  "_format": "hh-sol-artifact-1",
  "contractName": "Elect",
  "sourceName": "contracts/G-DAO.sol",
  "abi": [
    {
      "inputs": [],
      "stateMutability": "nonpayable",
      "type": "constructor"
    },
    {
      "anonymous": false,
      "inputs": [
        {
          "indexed": true,
          "internalType": "address",
          "name": "previousOwner",
          "type": "address"
        },
        {
          "indexed": true,
          "internalType": "address",
          "name": "newOwner",
          "type": "address"
        }
      ],
      "name": "OwnershipTransferred",
      "type": "event"
    },
    {
      "anonymous": false,
      "inputs": [
        {
          "components": [
            {
              "internalType": "uint256",
              "name": "ID",
              "type": "uint256"
            },
            {
              "internalType": "string",
              "name": "name",
              "type": "string"
            },
            {
              "internalType": "string",
              "name": "position",
              "type": "string"
            },
            {
              "internalType": "string",
              "name": "ipfs",
              "type": "string"
            }
          ],
          "indexed": false,
          "internalType": "struct Elect.candid",
          "name": "winner",
          "type": "tuple"
        },
        {
          "indexed": false,
          "internalType": "uint256",
          "name": "votes",
          "type": "uint256"
        }
      ],
      "name": "Winner",
      "type": "event"
    },
    {
      "anonymous": false,
      "inputs": [
        {
          "indexed": false,
          "internalType": "uint256",
          "name": "ID",
          "type": "uint256"
        },
        {
          "indexed": false,
          "internalType": "string",
          "name": "name",
          "type": "string"
        },
        {
          "indexed": false,
          "internalType": "string",
          "name": "position",
          "type": "string"
        },
        {
          "indexed": false,
          "internalType": "string",
          "name": "ipfs",
          "type": "string"
        }
      ],
      "name": "candidates",
      "type": "event"
    },
    {
      "anonymous": false,
      "inputs": [
        {
          "components": [
            {
              "internalType": "uint256",
              "name": "ID",
              "type": "uint256"
            },
            {
              "internalType": "string",
              "name": "name",
              "type": "string"
            },
            {
              "internalType": "string",
              "name": "position",
              "type": "string"
            },
            {
              "internalType": "string",
              "name": "ipfs",
              "type": "string"
            }
          ],
          "indexed": false,
          "internalType": "struct Elect.candid",
          "name": "Candid",
          "type": "tuple"
        },
        {
          "indexed": false,
          "internalType": "uint256",
          "name": "votes",
          "type": "uint256"
        }
      ],
      "name": "result",
      "type": "event"
    },
    {
      "inputs": [
        {
          "internalType": "address",
          "name": "holder",
          "type": "address"
        }
      ],
      "name": "addStakeholder",
      "outputs": [
        {
          "internalType": "bool",
          "name": "",
          "type": "bool"
        }
      ],
      "stateMutability": "nonpayable",
      "type": "function"
    },
    {
      "inputs": [
        {
          "internalType": "address",
          "name": "teach",
          "type": "address"
        }
      ],
      "name": "addTeacher",
      "outputs": [
        {
          "internalType": "bool",
          "name": "",
          "type": "bool"
        }
      ],
      "stateMutability": "nonpayable",
      "type": "function"
    },
    {
      "inputs": [
        {
          "internalType": "string",
          "name": "candidate",
          "type": "string"
        },
        {
          "internalType": "string",
          "name": "position",
          "type": "string"
        },
        {
          "internalType": "string",
          "name": "link",
          "type": "string"
        }
      ],
      "name": "addcandidate",
      "outputs": [],
      "stateMutability": "nonpayable",
      "type": "function"
    },
    {
      "inputs": [],
      "name": "beginVote",
      "outputs": [],
      "stateMutability": "nonpayable",
      "type": "function"
    },
    {
      "inputs": [
        {
          "internalType": "uint256",
          "name": "",
          "type": "uint256"
        }
      ],
      "name": "candidateList",
      "outputs": [
        {
          "internalType": "string",
          "name": "",
          "type": "string"
        }
      ],
      "stateMutability": "view",
      "type": "function"
    },
    {
      "inputs": [
        {
          "internalType": "uint256",
          "name": "candidate",
          "type": "uint256"
        }
      ],
      "name": "candidateVotes",
      "outputs": [
        {
          "internalType": "string",
          "name": "",
          "type": "string"
        }
      ],
      "stateMutability": "view",
      "type": "function"
    },
    {
      "inputs": [
        {
          "internalType": "string",
          "name": "candidate",
          "type": "string"
        }
      ],
      "name": "checkCandidate",
      "outputs": [
        {
          "internalType": "bool",
          "name": "",
          "type": "bool"
        }
      ],
      "stateMutability": "view",
      "type": "function"
    },
    {
      "inputs": [],
      "name": "count",
      "outputs": [
        {
          "internalType": "uint256",
          "name": "",
          "type": "uint256"
        }
      ],
      "stateMutability": "view",
      "type": "function"
    },
    {
      "inputs": [],
      "name": "disable",
      "outputs": [],
      "stateMutability": "nonpayable",
      "type": "function"
    },
    {
      "inputs": [],
      "name": "enable",
      "outputs": [],
      "stateMutability": "nonpayable",
      "type": "function"
    },
    {
      "inputs": [],
      "name": "endVote",
      "outputs": [],
      "stateMutability": "nonpayable",
      "type": "function"
    },
    {
      "inputs": [],
      "name": "owner",
      "outputs": [
        {
          "internalType": "address",
          "name": "",
          "type": "address"
        }
      ],
      "stateMutability": "view",
      "type": "function"
    },
    {
      "inputs": [],
      "name": "publicResults",
      "outputs": [],
      "stateMutability": "nonpayable",
      "type": "function"
    },
    {
      "inputs": [],
      "name": "renounceOwnership",
      "outputs": [],
      "stateMutability": "nonpayable",
      "type": "function"
    },
    {
      "inputs": [
        {
          "internalType": "address",
          "name": "_chairman",
          "type": "address"
        }
      ],
      "name": "setChairman",
      "outputs": [],
      "stateMutability": "nonpayable",
      "type": "function"
    },
    {
      "inputs": [],
      "name": "showwinner",
      "outputs": [],
      "stateMutability": "nonpayable",
      "type": "function"
    },
    {
      "inputs": [
        {
          "internalType": "address",
          "name": "newOwner",
          "type": "address"
        }
      ],
      "name": "transferOwnership",
      "outputs": [],
      "stateMutability": "nonpayable",
      "type": "function"
    },
    {
      "inputs": [
        {
          "internalType": "uint256",
          "name": "candidate",
          "type": "uint256"
        }
      ],
      "name": "voteCandidate",
      "outputs": [
        {
          "internalType": "bytes32",
          "name": "",
          "type": "bytes32"
        }
      ],
      "stateMutability": "nonpayable",
      "type": "function"
    },
    {
      "inputs": [
        {
          "internalType": "uint256",
          "name": "",
          "type": "uint256"
        }
      ],
      "name": "votesReceived",
      "outputs": [
        {
          "internalType": "uint256",
          "name": "",
          "type": "uint256"
        }
      ],
      "stateMutability": "view",
      "type": "function"
    }
  ],
  "bytecode": "0x60806040526000600b553480156200001657600080fd5b50620000376200002b6200009c60201b60201c565b620000a460201b60201c565b6001600560003373ffffffffffffffffffffffffffffffffffffffff1673ffffffffffffffffffffffffffffffffffffffff16815260200190815260200160002060006101000a81548160ff0219169083151502179055504260088190555062000168565b600033905090565b60008060009054906101000a900473ffffffffffffffffffffffffffffffffffffffff169050816000806101000a81548173ffffffffffffffffffffffffffffffffffffffff021916908373ffffffffffffffffffffffffffffffffffffffff1602179055508173ffffffffffffffffffffffffffffffffffffffff168173ffffffffffffffffffffffffffffffffffffffff167f8be0079c531659141344cd1fd0a4f28419497f9722a3daafe3b4186f6b6457e060405160405180910390a35050565b61291280620001786000396000f3fe608060405234801561001057600080fd5b50600436106101215760003560e01c80638ca16f26116100ad578063b922394611610071578063b922394614610296578063e5c42fd1146102a0578063f2fde38b146102d0578063f3084a63146102ec578063f49e323e1461031c57610121565b80638ca16f26146101f25780638da5cb5b14610222578063a3907d7114610240578063a7b495291461024a578063b13c744b1461026657610121565b80634855c29f116100f45780634855c29f1461018857806359191590146101925780635cb2e9e31461019c578063715018a6146101b85780638c08a4dc146101c257610121565b806306661abd1461012657806328bc5ee4146101445780632f2770db1461014e5780633bc6e30914610158575b600080fd5b61012e61034c565b60405161013b91906122d1565b60405180910390f35b61014c610352565b005b610156610444565b005b610172600480360381019061016d9190611b40565b6104ec565b60405161017f91906120a9565b60405180910390f35b610190610650565b005b61019a610802565b005b6101b660048036038101906101b19190611baa565b610ad0565b005b6101c0610d30565b005b6101dc60048036038101906101d79190611c41565b610db8565b6040516101e991906120c4565b60405180910390f35b61020c60048036038101906102079190611b69565b61108d565b60405161021991906120a9565b60405180910390f35b61022a6111a3565b604051610237919061208e565b60405180910390f35b6102486111cc565b005b610264600480360381019061025f9190611b40565b611265565b005b610280600480360381019061027b9190611c41565b611325565b60405161028d91906120df565b60405180910390f35b61029e6113d1565b005b6102ba60048036038101906102b59190611b40565b6114c3565b6040516102c791906120a9565b60405180910390f35b6102ea60048036038101906102e59190611b40565b6115fb565b005b61030660048036038101906103019190611c41565b6116f3565b60405161031391906122d1565b60405180910390f35b61033660048036038101906103319190611c41565b61170b565b60405161034391906120df565b60405180910390f35b600b5481565b600854421015610397576040517f08c379a000000000000000000000000000000000000000000000000000000000815260040161038e906121a1565b60405180910390fd5b600960009054906101000a900473ffffffffffffffffffffffffffffffffffffffff1673ffffffffffffffffffffffffffffffffffffffff163373ffffffffffffffffffffffffffffffffffffffff1614610427576040517f08c379a000000000000000000000000000000000000000000000000000000000815260040161041e90612181565b60405180910390fd5b6001600960146101000a81548160ff021916908315150217905550565b600960009054906101000a900473ffffffffffffffffffffffffffffffffffffffff1673ffffffffffffffffffffffffffffffffffffffff163373ffffffffffffffffffffffffffffffffffffffff16146104d4576040517f08c379a00000000000000000000000000000000000000000000000000000000081526004016104cb90612201565b60405180910390fd5b6301e28500426104e491906123e9565b600881905550565b6000600854421015610533576040517f08c379a000000000000000000000000000000000000000000000000000000000815260040161052a906121a1565b60405180910390fd5b600960009054906101000a900473ffffffffffffffffffffffffffffffffffffffff1673ffffffffffffffffffffffffffffffffffffffff163373ffffffffffffffffffffffffffffffffffffffff1614806105df575060011515600560003373ffffffffffffffffffffffffffffffffffffffff1673ffffffffffffffffffffffffffffffffffffffff16815260200190815260200160002060009054906101000a900460ff161515145b15610641576001600660008473ffffffffffffffffffffffffffffffffffffffff1673ffffffffffffffffffffffffffffffffffffffff16815260200190815260200160002060006101000a81548160ff02191690831515021790555061064a565b6000905061064b565b5b919050565b600854421015610695576040517f08c379a000000000000000000000000000000000000000000000000000000000815260040161068c906121a1565b60405180910390fd5b60011515600560003373ffffffffffffffffffffffffffffffffffffffff1673ffffffffffffffffffffffffffffffffffffffff16815260200190815260200160002060009054906101000a900460ff16151514610728576040517f08c379a000000000000000000000000000000000000000000000000000000000815260040161071f90612221565b60405180910390fd5b60001515600960149054906101000a900460ff1615151461077e576040517f08c379a000000000000000000000000000000000000000000000000000000000815260040161077590612281565b60405180910390fd5b6000600190505b600b5481116107ff577f8fd8b8073b93925c1c6c801f38108565c83f6a6d1f39575dbb57bd85e18bdc006007600083815260200190815260200160002060036000848152602001908152602001600020546040516107e49291906122a1565b60405180910390a180806107f79061255a565b915050610785565b50565b60011515600560003373ffffffffffffffffffffffffffffffffffffffff1673ffffffffffffffffffffffffffffffffffffffff16815260200190815260200160002060009054906101000a900460ff16151514610895576040517f08c379a000000000000000000000000000000000000000000000000000000000815260040161088c90612221565b60405180910390fd5b60001515600960149054906101000a900460ff161515146108eb576040517f08c379a00000000000000000000000000000000000000000000000000000000081526004016108e290612281565b60405180910390fd5b600080600190505b600b5481116109c25781600360008381526020019081526020016000205411156109695760036000828152602001908152602001600020549150600a600061093b91906119ea565b600a8190806001815401808255809150506001900390600052602060002001600090919091909150556109af565b81600360008381526020019081526020016000205414156109ae57600a8190806001815401808255809150506001900390600052602060002001600090919091909150555b5b80806109ba9061255a565b9150506108f3565b5060005b600a80549050811015610acc577fc9eed82c8b4282b414a0e947907947574ce08e787e1ad46d54d3549309ea5c8160076000600a8481548110610a32577f4e487b7100000000000000000000000000000000000000000000000000000000600052603260045260246000fd5b9060005260206000200154815260200190815260200160002060036000600a8581548110610a89577f4e487b7100000000000000000000000000000000000000000000000000000000600052603260045260246000fd5b9060005260206000200154815260200190815260200160002054604051610ab19291906122a1565b60405180910390a18080610ac49061255a565b9150506109c6565b5050565b600854421015610b15576040517f08c379a0000000000000000000000000000000000000000000000000000000008152600401610b0c906121a1565b60405180910390fd5b600960009054906101000a900473ffffffffffffffffffffffffffffffffffffffff1673ffffffffffffffffffffffffffffffffffffffff163373ffffffffffffffffffffffffffffffffffffffff1614610ba5576040517f08c379a0000000000000000000000000000000000000000000000000000000008152600401610b9c90612121565b60405180910390fd5b60006001600b54610bb691906123e9565b9050600b6000815480929190610bcb9061255a565b9190505550600184908060018154018082558091505060019003906000526020600020016000909190919091509080519060200190610c0b929190611a0b565b5060016002600083815260200190815260200160002060006101000a81548160ff021916908315150217905550600060036000838152602001908152602001600020819055506040518060800160405280600b5481526020018581526020018481526020018381525060076000838152602001908152602001600020600082015181600001556020820151816001019080519060200190610cad929190611a0b565b506040820151816002019080519060200190610cca929190611a0b565b506060820151816003019080519060200190610ce7929190611a0b565b509050507ffa9a98070013aa5035e44fc5d4ae6bfedbce2081816a89df927bac89f1165898600b54858585604051610d2294939291906122ec565b60405180910390a150505050565b610d3861191e565b73ffffffffffffffffffffffffffffffffffffffff16610d566111a3565b73ffffffffffffffffffffffffffffffffffffffff1614610dac576040517f08c379a0000000000000000000000000000000000000000000000000000000008152600401610da3906121c1565b60405180910390fd5b610db66000611926565b565b6000600854421015610dff576040517f08c379a0000000000000000000000000000000000000000000000000000000008152600401610df6906121a1565b60405180910390fd5b60011515600560003373ffffffffffffffffffffffffffffffffffffffff1673ffffffffffffffffffffffffffffffffffffffff16815260200190815260200160002060009054906101000a900460ff16151514610e92576040517f08c379a0000000000000000000000000000000000000000000000000000000008152600401610e8990612221565b60405180910390fd5b60011515600960149054906101000a900460ff16151514610ee8576040517f08c379a0000000000000000000000000000000000000000000000000000000008152600401610edf90612241565b60405180910390fd5b60001515600460003373ffffffffffffffffffffffffffffffffffffffff1673ffffffffffffffffffffffffffffffffffffffff16815260200190815260200160002060009054906101000a900460ff16151514610f7b576040517f08c379a0000000000000000000000000000000000000000000000000000000008152600401610f72906121e1565b60405180910390fd5b600115156002600084815260200190815260200160002060009054906101000a900460ff16151514610fe2576040517f08c379a0000000000000000000000000000000000000000000000000000000008152600401610fd990612101565b60405180910390fd5b6001600460003373ffffffffffffffffffffffffffffffffffffffff1673ffffffffffffffffffffffffffffffffffffffff16815260200190815260200160002060006101000a81548160ff021916908315150217905550600160036000848152602001908152602001600020600082825461105e91906123e9565b925050819055507f766f7465640000000000000000000000000000000000000000000000000000009050919050565b60006008544210156110d4576040517f08c379a00000000000000000000000000000000000000000000000000000000081526004016110cb906121a1565b60405180910390fd5b60005b60018054905081101561119857826040516020016110f59190612060565b6040516020818303038152906040528051906020012060018281548110611145577f4e487b7100000000000000000000000000000000000000000000000000000000600052603260045260246000fd5b9060005260206000200160405160200161115f9190612077565b60405160208183030381529060405280519060200120141561118557600191505061119e565b80806111909061255a565b9150506110d7565b50600090505b919050565b60008060009054906101000a900473ffffffffffffffffffffffffffffffffffffffff16905090565b600960009054906101000a900473ffffffffffffffffffffffffffffffffffffffff1673ffffffffffffffffffffffffffffffffffffffff163373ffffffffffffffffffffffffffffffffffffffff161461125c576040517f08c379a000000000000000000000000000000000000000000000000000000000815260040161125390612201565b60405180910390fd5b42600881905550565b61126d61191e565b73ffffffffffffffffffffffffffffffffffffffff1661128b6111a3565b73ffffffffffffffffffffffffffffffffffffffff16146112e1576040517f08c379a00000000000000000000000000000000000000000000000000000000081526004016112d8906121c1565b60405180910390fd5b80600960006101000a81548173ffffffffffffffffffffffffffffffffffffffff021916908373ffffffffffffffffffffffffffffffffffffffff16021790555050565b6001818154811061133557600080fd5b906000526020600020016000915090508054611350906124dd565b80601f016020809104026020016040519081016040528092919081815260200182805461137c906124dd565b80156113c95780601f1061139e576101008083540402835291602001916113c9565b820191906000526020600020905b8154815290600101906020018083116113ac57829003601f168201915b505050505081565b600854421015611416576040517f08c379a000000000000000000000000000000000000000000000000000000000815260040161140d906121a1565b60405180910390fd5b600960009054906101000a900473ffffffffffffffffffffffffffffffffffffffff1673ffffffffffffffffffffffffffffffffffffffff163373ffffffffffffffffffffffffffffffffffffffff16146114a6576040517f08c379a000000000000000000000000000000000000000000000000000000000815260040161149d90612161565b60405180910390fd5b6000600960146101000a81548160ff021916908315150217905550565b600060085442101561150a576040517f08c379a0000000000000000000000000000000000000000000000000000000008152600401611501906121a1565b60405180910390fd5b600960009054906101000a900473ffffffffffffffffffffffffffffffffffffffff1673ffffffffffffffffffffffffffffffffffffffff163373ffffffffffffffffffffffffffffffffffffffff161461159a576040517f08c379a000000000000000000000000000000000000000000000000000000000815260040161159190612261565b60405180910390fd5b6001600560008473ffffffffffffffffffffffffffffffffffffffff1673ffffffffffffffffffffffffffffffffffffffff16815260200190815260200160002060006101000a81548160ff02191690831515021790555060019050919050565b61160361191e565b73ffffffffffffffffffffffffffffffffffffffff166116216111a3565b73ffffffffffffffffffffffffffffffffffffffff1614611677576040517f08c379a000000000000000000000000000000000000000000000000000000000815260040161166e906121c1565b60405180910390fd5b600073ffffffffffffffffffffffffffffffffffffffff168173ffffffffffffffffffffffffffffffffffffffff1614156116e7576040517f08c379a00000000000000000000000000000000000000000000000000000000081526004016116de90612141565b60405180910390fd5b6116f081611926565b50565b60036020528060005260406000206000915090505481565b6060600854421015611752576040517f08c379a0000000000000000000000000000000000000000000000000000000008152600401611749906121a1565b60405180910390fd5b600960009054906101000a900473ffffffffffffffffffffffffffffffffffffffff1673ffffffffffffffffffffffffffffffffffffffff163373ffffffffffffffffffffffffffffffffffffffff1614806117fe575060011515600660003373ffffffffffffffffffffffffffffffffffffffff1673ffffffffffffffffffffffffffffffffffffffff16815260200190815260200160002060009054906101000a900460ff161515145b156118fd57600115156002600084815260200190815260200160002060009054906101000a900460ff1615151461186a576040517f08c379a000000000000000000000000000000000000000000000000000000000815260040161186190612101565b60405180910390fd5b6000600360008481526020019081526020016000205467ffffffffffffffff8111156118bf577f4e487b7100000000000000000000000000000000000000000000000000000000600052604160045260246000fd5b6040519080825280601f01601f1916602001820160405280156118f15781602001600182028036833780820191505090505b50905080915050611919565b6040518060600160405280602581526020016128b86025913990505b919050565b600033905090565b60008060009054906101000a900473ffffffffffffffffffffffffffffffffffffffff169050816000806101000a81548173ffffffffffffffffffffffffffffffffffffffff021916908373ffffffffffffffffffffffffffffffffffffffff1602179055508173ffffffffffffffffffffffffffffffffffffffff168173ffffffffffffffffffffffffffffffffffffffff167f8be0079c531659141344cd1fd0a4f28419497f9722a3daafe3b4186f6b6457e060405160405180910390a35050565b5080546000825590600052602060002090810190611a089190611a91565b50565b828054611a17906124dd565b90600052602060002090601f016020900481019282611a395760008555611a80565b82601f10611a5257805160ff1916838001178555611a80565b82800160010185558215611a80579182015b82811115611a7f578251825591602001919060010190611a64565b5b509050611a8d9190611a91565b5090565b5b80821115611aaa576000816000905550600101611a92565b5090565b6000611ac1611abc8461236b565b612346565b905082815260208101848484011115611ad957600080fd5b611ae484828561249b565b509392505050565b600081359050611afb81612889565b92915050565b600082601f830112611b1257600080fd5b8135611b22848260208601611aae565b91505092915050565b600081359050611b3a816128a0565b92915050565b600060208284031215611b5257600080fd5b6000611b6084828501611aec565b91505092915050565b600060208284031215611b7b57600080fd5b600082013567ffffffffffffffff811115611b9557600080fd5b611ba184828501611b01565b91505092915050565b600080600060608486031215611bbf57600080fd5b600084013567ffffffffffffffff811115611bd957600080fd5b611be586828701611b01565b935050602084013567ffffffffffffffff811115611c0257600080fd5b611c0e86828701611b01565b925050604084013567ffffffffffffffff811115611c2b57600080fd5b611c3786828701611b01565b9150509250925092565b600060208284031215611c5357600080fd5b6000611c6184828501611b2b565b91505092915050565b611c7381612449565b82525050565b611c828161245b565b82525050565b611c9181612467565b82525050565b6000611ca2826123b1565b611cac81856123cd565b9350611cbc8185602086016124aa565b611cc581612630565b840191505092915050565b6000611cdb826123b1565b611ce581856123de565b9350611cf58185602086016124aa565b80840191505092915050565b60008154611d0e816124dd565b611d1881866123bc565b94506001821660008114611d335760018114611d4557611d78565b60ff1983168652602086019350611d78565b611d4e8561239c565b60005b83811015611d7057815481890152600182019150602081019050611d51565b808801955050505b50505092915050565b60008154611d8e816124dd565b611d9881866123de565b94506001821660008114611db35760018114611dc457611df7565b60ff19831686528186019350611df7565b611dcd8561239c565b60005b83811015611def57815481890152600182019150602081019050611dd0565b838801955050505b50505092915050565b6000611e0d6017836123cd565b9150611e188261264e565b602082019050919050565b6000611e306010836123cd565b9150611e3b82612677565b602082019050919050565b6000611e536026836123cd565b9150611e5e826126a0565b604082019050919050565b6000611e766018836123cd565b9150611e81826126ef565b602082019050919050565b6000611e996018836123cd565b9150611ea482612718565b602082019050919050565b6000611ebc6014836123cd565b9150611ec782612741565b602082019050919050565b6000611edf6020836123cd565b9150611eea8261276a565b602082019050919050565b6000611f026013836123cd565b9150611f0d82612793565b602082019050919050565b6000611f256018836123cd565b9150611f30826127bc565b602082019050919050565b6000611f486019836123cd565b9150611f53826127e5565b602082019050919050565b6000611f6b6018836123cd565b9150611f768261280e565b602082019050919050565b6000611f8e600d836123cd565b9150611f9982612837565b602082019050919050565b6000611fb16017836123cd565b9150611fbc82612860565b602082019050919050565b6000608083016000808401549050611fde8161250f565b611feb6000870182612042565b506001840185830360208701526120028382611d01565b92505060028401858303604087015261201b8382611d01565b9250506003840185830360608701526120348382611d01565b925050819250505092915050565b61204b81612491565b82525050565b61205a81612491565b82525050565b600061206c8284611cd0565b915081905092915050565b60006120838284611d81565b915081905092915050565b60006020820190506120a36000830184611c6a565b92915050565b60006020820190506120be6000830184611c79565b92915050565b60006020820190506120d96000830184611c88565b92915050565b600060208201905081810360008301526120f98184611c97565b905092915050565b6000602082019050818103600083015261211a81611e00565b9050919050565b6000602082019050818103600083015261213a81611e23565b9050919050565b6000602082019050818103600083015261215a81611e46565b9050919050565b6000602082019050818103600083015261217a81611e69565b9050919050565b6000602082019050818103600083015261219a81611e8c565b9050919050565b600060208201905081810360008301526121ba81611eaf565b9050919050565b600060208201905081810360008301526121da81611ed2565b9050919050565b600060208201905081810360008301526121fa81611ef5565b9050919050565b6000602082019050818103600083015261221a81611f18565b9050919050565b6000602082019050818103600083015261223a81611f3b565b9050919050565b6000602082019050818103600083015261225a81611f5e565b9050919050565b6000602082019050818103600083015261227a81611f81565b9050919050565b6000602082019050818103600083015261229a81611fa4565b9050919050565b600060408201905081810360008301526122bb8185611fc7565b90506122ca6020830184612051565b9392505050565b60006020820190506122e66000830184612051565b92915050565b60006080820190506123016000830187612051565b81810360208301526123138186611c97565b905081810360408301526123278185611c97565b9050818103606083015261233b8184611c97565b905095945050505050565b6000612350612361565b905061235c8282612529565b919050565b6000604051905090565b600067ffffffffffffffff82111561238657612385612601565b5b61238f82612630565b9050602081019050919050565b60008190508160005260206000209050919050565b600081519050919050565b600082825260208201905092915050565b600082825260208201905092915050565b600081905092915050565b60006123f482612491565b91506123ff83612491565b9250827fffffffffffffffffffffffffffffffffffffffffffffffffffffffffffffffff03821115612434576124336125a3565b5b828201905092915050565b6000819050919050565b600061245482612471565b9050919050565b60008115159050919050565b6000819050919050565b600073ffffffffffffffffffffffffffffffffffffffff82169050919050565b6000819050919050565b82818337600083830152505050565b60005b838110156124c85780820151818401526020810190506124ad565b838111156124d7576000848401525b50505050565b600060028204905060018216806124f557607f821691505b60208210811415612509576125086125d2565b5b50919050565b600061252261251d83612641565b61243f565b9050919050565b61253282612630565b810181811067ffffffffffffffff8211171561255157612550612601565b5b80604052505050565b600061256582612491565b91507fffffffffffffffffffffffffffffffffffffffffffffffffffffffffffffffff821415612598576125976125a3565b5b600182019050919050565b7f4e487b7100000000000000000000000000000000000000000000000000000000600052601160045260246000fd5b7f4e487b7100000000000000000000000000000000000000000000000000000000600052602260045260246000fd5b7f4e487b7100000000000000000000000000000000000000000000000000000000600052604160045260246000fd5b6000601f19601f8301169050919050565b60008160001c9050919050565b7f54686973206973206e6f7420612063616e646964617465000000000000000000600082015250565b7f6d7573742062652063686169726d616e00000000000000000000000000000000600082015250565b7f4f776e61626c653a206e6577206f776e657220697320746865207a65726f206160008201527f6464726573730000000000000000000000000000000000000000000000000000602082015250565b7f796f75277265206e6f74207468652063686169726d616e200000000000000000600082015250565b7f796f75277265206e6f7420746865206368616972206d616e0000000000000000600082015250565b7f636f6e74726163742069732064697361626c6564000000000000000000000000600082015250565b7f4f776e61626c653a2063616c6c6572206973206e6f7420746865206f776e6572600082015250565b7f596f752063616e7420766f746520747769636500000000000000000000000000600082015250565b7f596f7520617265206e6f74207468652063686169726d616e0000000000000000600082015250565b7f596f7520617265206e6f742061207374616b65686f6c64657200000000000000600082015250565b7f497473206e6f74207965742074696d6520746f20766f74650000000000000000600082015250565b7f6f6e6c792063686169726d616e00000000000000000000000000000000000000600082015250565b7f766f74696e672068617320746f20656e64206669727374000000000000000000600082015250565b61289281612449565b811461289d57600080fd5b50565b6128a981612491565b81146128b457600080fd5b5056fe596f7520646f6e7420686176652061636365737320746f20746869732066756e6374696f6ea26469706673582212204300551341a4115d3b1366dc68f5c1ceb5aa0bbbd13d45a2132d92feb52df3e664736f6c63430008040033",
  "linkReferences": {},
  "deployedLinkReferences": {}
}